{
  "_format": "hh-sol-artifact-1",
  "contractName": "BlindBetMarket",
  "sourceName": "contracts/core/BlindBetMarket.sol",
  "abi": [
    {
      "inputs": [
        {
          "internalType": "address",
          "name": "tokenAddress",
          "type": "address"
        }
      ],
      "stateMutability": "nonpayable",
      "type": "constructor"
    },
    {
      "inputs": [],
      "name": "AlreadyClaimed",
      "type": "error"
    },
    {
      "inputs": [],
      "name": "BettingDeadlinePassed",
      "type": "error"
    },
    {
      "inputs": [],
      "name": "EmptyQuestion",
      "type": "error"
    },
    {
      "inputs": [],
      "name": "HandlesAlreadySavedForRequestID",
      "type": "error"
    },
    {
      "inputs": [],
      "name": "InvalidAmount",
      "type": "error"
    },
    {
      "inputs": [],
      "name": "InvalidDuration",
      "type": "error"
    },
    {
      "inputs": [],
      "name": "InvalidKMSSignatures",
      "type": "error"
    },
    {
      "inputs": [],
      "name": "InvalidQuestion",
      "type": "error"
    },
    {
      "inputs": [],
      "name": "InvalidRequestId",
      "type": "error"
    },
    {
      "inputs": [],
      "name": "InvalidResolver",
      "type": "error"
    },
    {
      "inputs": [],
      "name": "InvalidState",
      "type": "error"
    },
    {
      "inputs": [],
      "name": "MarketAlreadyResolved",
      "type": "error"
    },
    {
      "inputs": [],
      "name": "MarketNotFound",
      "type": "error"
    },
    {
      "inputs": [],
      "name": "MarketNotLocked",
      "type": "error"
    },
    {
      "inputs": [],
      "name": "MarketNotOpen",
      "type": "error"
    },
    {
      "inputs": [],
      "name": "MarketNotResolved",
      "type": "error"
    },
    {
      "inputs": [],
      "name": "NoHandleFoundForRequestID",
      "type": "error"
    },
    {
      "inputs": [],
      "name": "NoPosition",
      "type": "error"
    },
    {
      "inputs": [],
      "name": "NotAuthorizedResolver",
      "type": "error"
    },
    {
      "inputs": [
        {
          "internalType": "address",
          "name": "owner",
          "type": "address"
        }
      ],
      "name": "OwnableInvalidOwner",
      "type": "error"
    },
    {
      "inputs": [
        {
          "internalType": "address",
          "name": "account",
          "type": "address"
        }
      ],
      "name": "OwnableUnauthorizedAccount",
      "type": "error"
    },
    {
      "inputs": [],
      "name": "ReentrancyGuardReentrantCall",
      "type": "error"
    },
    {
      "inputs": [],
      "name": "Unauthorized",
      "type": "error"
    },
    {
      "anonymous": false,
      "inputs": [
        {
          "indexed": true,
          "internalType": "uint256",
          "name": "marketId",
          "type": "uint256"
        },
        {
          "indexed": true,
          "internalType": "address",
          "name": "user",
          "type": "address"
        },
        {
          "indexed": false,
          "internalType": "bytes32",
          "name": "encryptedAmountHandle",
          "type": "bytes32"
        },
        {
          "indexed": false,
          "internalType": "bytes32",
          "name": "encryptedOutcomeHandle",
          "type": "bytes32"
        },
        {
          "indexed": false,
          "internalType": "uint256",
          "name": "timestamp",
          "type": "uint256"
        }
      ],
      "name": "BetPlaced",
      "type": "event"
    },
    {
      "anonymous": false,
      "inputs": [
        {
          "indexed": true,
          "internalType": "uint256",
          "name": "requestID",
          "type": "uint256"
        }
      ],
      "name": "DecryptionFulfilled",
      "type": "event"
    },
    {
      "anonymous": false,
      "inputs": [
        {
          "indexed": true,
          "internalType": "uint256",
          "name": "marketId",
          "type": "uint256"
        },
        {
          "indexed": false,
          "internalType": "bytes32",
          "name": "encryptedFeeAmount",
          "type": "bytes32"
        }
      ],
      "name": "FeeCollected",
      "type": "event"
    },
    {
      "anonymous": false,
      "inputs": [
        {
          "indexed": true,
          "internalType": "uint256",
          "name": "marketId",
          "type": "uint256"
        },
        {
          "indexed": true,
          "internalType": "address",
          "name": "creator",
          "type": "address"
        },
        {
          "indexed": false,
          "internalType": "uint256",
          "name": "timestamp",
          "type": "uint256"
        }
      ],
      "name": "MarketCreated",
      "type": "event"
    },
    {
      "anonymous": false,
      "inputs": [
        {
          "indexed": true,
          "internalType": "uint256",
          "name": "marketId",
          "type": "uint256"
        },
        {
          "indexed": false,
          "internalType": "string",
          "name": "question",
          "type": "string"
        },
        {
          "indexed": false,
          "internalType": "uint256",
          "name": "bettingDeadline",
          "type": "uint256"
        },
        {
          "indexed": false,
          "internalType": "uint256",
          "name": "resolutionTime",
          "type": "uint256"
        },
        {
          "indexed": true,
          "internalType": "address",
          "name": "creator",
          "type": "address"
        }
      ],
      "name": "MarketCreated",
      "type": "event"
    },
    {
      "anonymous": false,
      "inputs": [
        {
          "indexed": true,
          "internalType": "uint256",
          "name": "marketId",
          "type": "uint256"
        },
        {
          "indexed": false,
          "internalType": "uint256",
          "name": "timestamp",
          "type": "uint256"
        }
      ],
      "name": "MarketLocked",
      "type": "event"
    },
    {
      "anonymous": false,
      "inputs": [
        {
          "indexed": true,
          "internalType": "uint256",
          "name": "marketId",
          "type": "uint256"
        },
        {
          "indexed": false,
          "internalType": "enum IBlindBetMarket.Outcome",
          "name": "outcome",
          "type": "uint8"
        },
        {
          "indexed": false,
          "internalType": "uint256",
          "name": "timestamp",
          "type": "uint256"
        }
      ],
      "name": "MarketResolved",
      "type": "event"
    },
    {
      "anonymous": false,
      "inputs": [
        {
          "indexed": true,
          "internalType": "uint256",
          "name": "marketId",
          "type": "uint256"
        },
        {
          "indexed": false,
          "internalType": "uint8",
          "name": "newState",
          "type": "uint8"
        }
      ],
      "name": "MarketStateChanged",
      "type": "event"
    },
    {
      "anonymous": false,
      "inputs": [
        {
          "indexed": true,
          "internalType": "uint256",
          "name": "marketId",
          "type": "uint256"
        },
        {
          "indexed": false,
          "internalType": "enum IBlindBetMarket.Outcome",
          "name": "outcome",
          "type": "uint8"
        },
        {
          "indexed": true,
          "internalType": "address",
          "name": "resolver",
          "type": "address"
        }
      ],
      "name": "OutcomeSet",
      "type": "event"
    },
    {
      "anonymous": false,
      "inputs": [
        {
          "indexed": true,
          "internalType": "address",
          "name": "previousOwner",
          "type": "address"
        },
        {
          "indexed": true,
          "internalType": "address",
          "name": "newOwner",
          "type": "address"
        }
      ],
      "name": "OwnershipTransferred",
      "type": "event"
    },
    {
      "anonymous": false,
      "inputs": [
        {
          "indexed": true,
          "internalType": "uint256",
          "name": "marketId",
          "type": "uint256"
        },
        {
          "indexed": false,
          "internalType": "uint64",
          "name": "totalYesAmount",
          "type": "uint64"
        },
        {
          "indexed": false,
          "internalType": "uint64",
          "name": "totalNoAmount",
          "type": "uint64"
        },
        {
          "indexed": false,
          "internalType": "uint256",
          "name": "timestamp",
          "type": "uint256"
        }
      ],
      "name": "PoolTotalsDecrypted",
      "type": "event"
    },
    {
      "anonymous": false,
      "inputs": [
        {
          "indexed": true,
          "internalType": "uint256",
          "name": "marketId",
          "type": "uint256"
        },
        {
          "indexed": false,
          "internalType": "uint256",
          "name": "requestId",
          "type": "uint256"
        },
        {
          "indexed": false,
          "internalType": "uint256",
          "name": "timestamp",
          "type": "uint256"
        }
      ],
      "name": "ResolutionRequested",
      "type": "event"
    },
    {
      "anonymous": false,
      "inputs": [
        {
          "indexed": true,
          "internalType": "uint256",
          "name": "marketId",
          "type": "uint256"
        },
        {
          "indexed": true,
          "internalType": "address",
          "name": "resolver",
          "type": "address"
        }
      ],
      "name": "ResolverAuthorized",
      "type": "event"
    },
    {
      "anonymous": false,
      "inputs": [
        {
          "indexed": true,
          "internalType": "uint256",
          "name": "marketId",
          "type": "uint256"
        },
        {
          "indexed": true,
          "internalType": "address",
          "name": "resolver",
          "type": "address"
        }
      ],
      "name": "ResolverRevoked",
      "type": "event"
    },
    {
      "anonymous": false,
      "inputs": [
        {
          "indexed": true,
          "internalType": "uint256",
          "name": "marketId",
          "type": "uint256"
        },
        {
          "indexed": true,
          "internalType": "address",
          "name": "user",
          "type": "address"
        },
        {
          "indexed": false,
          "internalType": "bytes32",
          "name": "encryptedPayoutHandle",
          "type": "bytes32"
        },
        {
          "indexed": false,
          "internalType": "uint256",
          "name": "timestamp",
          "type": "uint256"
        }
      ],
      "name": "WinningsClaimed",
      "type": "event"
    },
    {
      "inputs": [
        {
          "internalType": "uint256",
          "name": "marketId",
          "type": "uint256"
        }
      ],
      "name": "claimWinnings",
      "outputs": [],
      "stateMutability": "nonpayable",
      "type": "function"
    },
    {
      "inputs": [],
      "name": "collectedFeesHandle",
      "outputs": [
        {
          "internalType": "bytes32",
          "name": "",
          "type": "bytes32"
        }
      ],
      "stateMutability": "view",
      "type": "function"
    },
    {
      "inputs": [
        {
          "internalType": "string",
          "name": "question",
          "type": "string"
        },
        {
          "internalType": "uint256",
          "name": "bettingDuration",
          "type": "uint256"
        },
        {
          "internalType": "uint256",
          "name": "resolutionDelay",
          "type": "uint256"
        },
        {
          "internalType": "address",
          "name": "resolver",
          "type": "address"
        }
      ],
      "name": "createMarket",
      "outputs": [
        {
          "internalType": "uint256",
          "name": "marketId",
          "type": "uint256"
        }
      ],
      "stateMutability": "nonpayable",
      "type": "function"
    },
    {
      "inputs": [
        {
          "internalType": "uint256",
          "name": "marketId",
          "type": "uint256"
        },
        {
          "internalType": "address",
          "name": "user",
          "type": "address"
        }
      ],
      "name": "getEncryptedPosition",
      "outputs": [
        {
          "internalType": "euint64",
          "name": "yesAmount",
          "type": "bytes32"
        },
        {
          "internalType": "euint64",
          "name": "noAmount",
          "type": "bytes32"
        },
        {
          "internalType": "ebool",
          "name": "",
          "type": "bytes32"
        }
      ],
      "stateMutability": "view",
      "type": "function"
    },
    {
      "inputs": [
        {
          "internalType": "address",
          "name": "user",
          "type": "address"
        }
      ],
      "name": "getLastError",
      "outputs": [
        {
          "internalType": "bytes32",
          "name": "error",
          "type": "bytes32"
        },
        {
          "internalType": "uint256",
          "name": "timestamp",
          "type": "uint256"
        }
      ],
      "stateMutability": "view",
      "type": "function"
    },
    {
      "inputs": [
        {
          "internalType": "uint256",
          "name": "marketId",
          "type": "uint256"
        }
      ],
      "name": "getMarket",
      "outputs": [
        {
          "components": [
            {
              "internalType": "uint256",
              "name": "id",
              "type": "uint256"
            },
            {
              "internalType": "string",
              "name": "question",
              "type": "string"
            },
            {
              "internalType": "uint256",
              "name": "createdAt",
              "type": "uint256"
            },
            {
              "internalType": "uint256",
              "name": "bettingDeadline",
              "type": "uint256"
            },
            {
              "internalType": "uint256",
              "name": "resolutionTime",
              "type": "uint256"
            },
            {
              "internalType": "enum IBlindBetMarket.MarketState",
              "name": "state",
              "type": "uint8"
            },
            {
              "internalType": "enum IBlindBetMarket.Outcome",
              "name": "resolvedOutcome",
              "type": "uint8"
            },
            {
              "internalType": "address",
              "name": "creator",
              "type": "address"
            },
            {
              "internalType": "address",
              "name": "resolver",
              "type": "address"
            }
          ],
          "internalType": "struct IBlindBetMarket.MarketInfo",
          "name": "",
          "type": "tuple"
        }
      ],
      "stateMutability": "view",
      "type": "function"
    },
    {
      "inputs": [
        {
          "internalType": "uint256",
          "name": "marketId",
          "type": "uint256"
        }
      ],
      "name": "getMarketState",
      "outputs": [
        {
          "internalType": "enum IBlindBetMarket.MarketState",
          "name": "",
          "type": "uint8"
        }
      ],
      "stateMutability": "view",
      "type": "function"
    },
    {
      "inputs": [
        {
          "internalType": "uint256",
          "name": "marketId",
          "type": "uint256"
        }
      ],
      "name": "getResolver",
      "outputs": [
        {
          "internalType": "address",
          "name": "",
          "type": "address"
        }
      ],
      "stateMutability": "view",
      "type": "function"
    },
    {
      "inputs": [
        {
          "internalType": "uint256",
          "name": "marketId",
          "type": "uint256"
        },
        {
          "internalType": "address",
          "name": "user",
          "type": "address"
        }
      ],
      "name": "hasClaimed",
      "outputs": [
        {
          "internalType": "bool",
          "name": "",
          "type": "bool"
        }
      ],
      "stateMutability": "view",
      "type": "function"
    },
    {
      "inputs": [
        {
          "internalType": "uint256",
          "name": "marketId",
          "type": "uint256"
        },
        {
          "internalType": "address",
          "name": "resolver",
          "type": "address"
        }
      ],
      "name": "isAuthorizedResolver",
      "outputs": [
        {
          "internalType": "bool",
          "name": "",
          "type": "bool"
        }
      ],
      "stateMutability": "view",
      "type": "function"
    },
    {
      "inputs": [
        {
          "internalType": "uint256",
          "name": "marketId",
          "type": "uint256"
        }
      ],
      "name": "lockMarket",
      "outputs": [],
      "stateMutability": "nonpayable",
      "type": "function"
    },
    {
      "inputs": [],
      "name": "marketCount",
      "outputs": [
        {
          "internalType": "uint256",
          "name": "",
          "type": "uint256"
        }
      ],
      "stateMutability": "view",
      "type": "function"
    },
    {
      "inputs": [],
      "name": "owner",
      "outputs": [
        {
          "internalType": "address",
          "name": "",
          "type": "address"
        }
      ],
      "stateMutability": "view",
      "type": "function"
    },
    {
      "inputs": [
        {
          "internalType": "uint256",
          "name": "marketId",
          "type": "uint256"
        },
        {
          "internalType": "externalEuint64",
          "name": "encryptedAmount",
          "type": "bytes32"
        },
        {
          "internalType": "externalEbool",
          "name": "encryptedOutcome",
          "type": "bytes32"
        },
        {
          "internalType": "bytes",
          "name": "inputProof",
          "type": "bytes"
        }
      ],
      "name": "placeBet",
      "outputs": [],
      "stateMutability": "nonpayable",
      "type": "function"
    },
    {
      "inputs": [],
      "name": "protocolId",
      "outputs": [
        {
          "internalType": "uint256",
          "name": "",
          "type": "uint256"
        }
      ],
      "stateMutability": "pure",
      "type": "function"
    },
    {
      "inputs": [],
      "name": "renounceOwnership",
      "outputs": [],
      "stateMutability": "nonpayable",
      "type": "function"
    },
    {
      "inputs": [
        {
          "internalType": "uint256",
          "name": "marketId",
          "type": "uint256"
        }
      ],
      "name": "requestResolution",
      "outputs": [],
      "stateMutability": "nonpayable",
      "type": "function"
    },
    {
      "inputs": [
        {
          "internalType": "uint256",
          "name": "requestId",
          "type": "uint256"
        },
        {
          "internalType": "bytes",
          "name": "cleartexts",
          "type": "bytes"
        },
        {
          "internalType": "bytes",
          "name": "decryptionProof",
          "type": "bytes"
        }
      ],
      "name": "resolutionCallback",
      "outputs": [],
      "stateMutability": "nonpayable",
      "type": "function"
    },
    {
      "inputs": [
        {
          "internalType": "uint256",
          "name": "marketId",
          "type": "uint256"
        },
        {
          "internalType": "enum IBlindBetMarket.Outcome",
          "name": "outcome",
          "type": "uint8"
        }
      ],
      "name": "setResolution",
      "outputs": [],
      "stateMutability": "nonpayable",
      "type": "function"
    },
    {
      "inputs": [],
      "name": "token",
      "outputs": [
        {
          "internalType": "contract IConfidentialERC20",
          "name": "",
          "type": "address"
        }
      ],
      "stateMutability": "view",
      "type": "function"
    },
    {
      "inputs": [
        {
          "internalType": "address",
          "name": "newOwner",
          "type": "address"
        }
      ],
      "name": "transferOwnership",
      "outputs": [],
      "stateMutability": "nonpayable",
      "type": "function"
    }
  ],
  "bytecode": "0x60a0806040523461055857602081613438803803809161001f8285610750565b83398101031261055857516001600160a01b03811690819003610558575f606060405161004b81610721565b8281528260208201528260408201520152731364cbbf2cdf5032c47d8226a6f6fbd2afcdacac606060405161007f81610721565b73687820221192c5b662b25367f70076a37bc79b6c815273848b0066793bcc60346da1f49049357399b8d595602082015273a02cda4ca3a71d7c46997716f4283aa851c288126040820152015273687820221192c5b662b25367f70076a37bc79b6c60018060a01b03195f5160206134185f395f51905f525416175f5160206134185f395f51905f525573848b0066793bcc60346da1f49049357399b8d59560018060a01b03195f5160206133d85f395f51905f525416175f5160206133d85f395f51905f525573a02cda4ca3a71d7c46997716f4283aa851c2881260018060a01b03195f5160206133f85f395f51905f525416175f5160206133f85f395f51905f5255731364cbbf2cdf5032c47d8226a6f6fbd2afcdacac60018060a01b03195f5160206133b85f395f51905f525416175f5160206133b85f395f51905f525560015f55331561070e5760018054336001600160a01b0319821681179092556001600160a01b03167f8be0079c531659141344cd1fd0a4f28419497f9722a3daafe3b4186f6b6457e05f80a380156106ff576080525f5160206133d85f395f51905f5254604051639cd07acb60e01b81525f60048201819052600260248301529091602091839160449183916001600160a01b03165af1908115610564575f916106cd575b505f5160206133d85f395f51905f5254604051639cd07acb60e01b8152600160048201526002602482015290602090829060449082905f906001600160a01b03165af1908115610564575f9161069b575b505f5160206133d85f395f51905f5254604051639cd07acb60e01b8152600260048201819052602482015290602090829060449082905f906001600160a01b03165af1908115610564575f91610669575b505f5160206133d85f395f51905f5254604051639cd07acb60e01b8152600360048201526002602482015290602090829060449082905f906001600160a01b03165af1908115610564575f91610637575b505f5160206133d85f395f51905f5254604051639cd07acb60e01b81526004808201526002602482015290602090829060449082905f906001600160a01b03165af1908115610564575f91610605575b505f5160206133d85f395f51905f5254604051639cd07acb60e01b8152600560048201526002602482015290602090829060449082905f906001600160a01b03165af1908115610564575f916105d3575b505f5160206133d85f395f51905f5254604051639cd07acb60e01b8152600660048201526002602482015290602090829060449082905f906001600160a01b03165af1908115610564575f916105a1575b505f5160206133d85f395f51905f5254604051639cd07acb60e01b8152600760048201526002602482015290602090829060449082905f906001600160a01b03165af1908115610564575f9161056f575b505f5160206133d85f395f51905f5254604051639cd07acb60e01b8152600860048201526002602482015290602090829060449082905f906001600160a01b03165af1908115610564575f9161052e575b50600f55600e55600d55600c55600b55600a55600955600855600755604051612c4490816107748239608051818181610120015281816107660152611cf70152f35b90506020813d60201161055c575b8161054960209383610750565b8101031261055857515f6104ec565b5f80fd5b3d915061053c565b6040513d5f823e3d90fd5b90506020813d602011610599575b8161058a60209383610750565b8101031261055857515f61049b565b3d915061057d565b90506020813d6020116105cb575b816105bc60209383610750565b8101031261055857515f61044a565b3d91506105af565b90506020813d6020116105fd575b816105ee60209383610750565b8101031261055857515f6103f9565b3d91506105e1565b90506020813d60201161062f575b8161062060209383610750565b8101031261055857515f6103a8565b3d9150610613565b90506020813d602011610661575b8161065260209383610750565b8101031261055857515f610358565b3d9150610645565b90506020813d602011610693575b8161068460209383610750565b8101031261055857515f610307565b3d9150610677565b90506020813d6020116106c5575b816106b660209383610750565b8101031261055857515f6102b6565b3d91506106a9565b90506020813d6020116106f7575b816106e860209383610750565b8101031261055857515f610265565b3d91506106db565b63162908e360e11b5f5260045ffd5b631e4fbdf760e01b5f525f60045260245ffd5b608081019081106001600160401b0382111761073c57604052565b634e487b7160e01b5f52604160045260245ffd5b601f909101601f19168101906001600160401b0382119082101761073c5760405256fe60806040526004361015610011575f80fd5b5f5f3560e01c8063416a4f1914611eef57806353dd2c7d14611e85578063677bd9ff14611c1e5780636dd0435b14611a5b578063715018a6146119f35780637e488d9a146115cb5780638205ebcb146111bb578063873f6f9e1461116057806388b1f1c314611113578063890317ba146110f55780638da5cb5b146110ce578063c60c835e1461108d578063c9d1e6ee14610f5a578063caf0ca4714610ed0578063d35f3432146104e7578063da1f12ab146104ca578063eb44fdd314610279578063ec9790821461025b578063ee302a01146101dc578063f2fde38b146101475763fc0c546a14610101575f80fd5b3461014457806003193601126101445760206040516001600160a01b037f0000000000000000000000000000000000000000000000000000000000000000168152f35b80fd5b5034610144576020366003190112610144576001600160a01b03610169612379565b610171612593565b1680156101c8576001600160a01b036001548273ffffffffffffffffffffffffffffffffffffffff19821617600155167f8be0079c531659141344cd1fd0a4f28419497f9722a3daafe3b4186f6b6457e08380a380f35b631e4fbdf760e01b82526004829052602482fd5b5034610144576040366003190112610144576004356101f9612363565b9060055481101561024c576001600160a01b03600c60408583946020975260028752200154169116809114908115610237575b506040519015158152f35b90506001600160a01b0360015416145f61022c565b6307db1be560e41b8352600483fd5b50346101445780600319360112610144576020600554604051908152f35b5034610144576020366003190112610144576004358161010060405161029e8161238f565b828152606060208201528260408201528260608201528260808201528260a08201528260c08201528260e082015201526005548110156104bb578152600260205260408120805490600181016002820154916003810154600482015460058301549060ff8083169261030f84612474565b60081c169261031d84612474565b6001600160a01b03600c81600b88015460081c169601541695604051986103438a61238f565b8952604051998a91818154916103588361253d565b808652926001811690811561048a5750600114610446575b5050509161038f6001600160a01b03989795939289979593038c6123c0565b60208a019a8b5260408a0198895260608a0190815260808a0191825260a08a01926103b981612474565b835260c08a01936103c981612474565b845260e08a019485526101008a019687526104016040519b8c9b60208d525160208d01525161012060408d01526101408c019061247e565b985160608b01525160808a01525160a08901525161041e81612474565b60c08801525161042d81612474565b60e0870152511661010085015251166101208301520390f35b9080935052602082205b81831061046f575050810160200161038f826001600160a01b03610370565b80602092948385600194549201015201910190918b92610450565b60ff191660208088019190915293151560051b8601909301935061038f92508491506001600160a01b039050610370565b6307db1be560e41b8252600482fd5b503461014457806003193601126101445760206040516127118152f35b50346101445760803660031901126101445760043560643567ffffffffffffffff8111610ecc5761051c903690600401612446565b9190610526612575565b600554821015610ebd57818452600260205260ff600560408620015416610eae5781845260026020526003604085200154421015610ea0578184526002602052604084208285526003602052604085206001600160a01b0333165f5260205260405f206105943686856123e2565b946001600160a01b035f516020612c185f395f51905f525416936105de6040519763196d0b9b60e01b895260243560048a01523360248a0152608060448a0152608489019061247e565b9487602091818b81819a6005606483015203925af1968715610e81578597610e4a575b506001600160a01b037f9e7b61f58c47dc699ac88507c4f5bb9f121c03808c5676a8078fe583e46497005416803b15610df957604051630f8e573b60e21b8152600481018990523360248201529086908290604490829084905af1908115610cfc578691610e31575b505061067d6106c89160209336916123e2565b6001600160a01b035f516020612c185f395f51905f5254169060405196878094819363196d0b9b60e01b8352604435600484015233602484015260806044840152608483019061247e565b6106d56064830184612af0565b03925af1928315610cfc578693610dfd575b50856001600160a01b037f9e7b61f58c47dc699ac88507c4f5bb9f121c03808c5676a8078fe583e46497005416803b15610dac57604051630f8e573b60e21b8152600481018690523360248201529082908290604490829084905af18015610da157610de4575b50506040516370a0823160e01b8152306004820152947f00000000000000000000000000000000000000000000000000000000000000006001600160a01b0316602087602481845afa968715610ba1578897610db0575b50876001600160a01b037f9e7b61f58c47dc699ac88507c4f5bb9f121c03808c5676a8078fe583e46497005416803b15610dac57604051630f8e573b60e21b8152600481018590526001600160a01b03841660248201529082908290604490829084905af18015610da157610d88575b50506040519162bfb98760e51b835233600484015230602484015260448301526020826064818b855af1908115610ba157602492602092610d5d575b506040516370a0823160e01b815230600482015292839182905afa908115610bde578791610d2b575b50858115610d1b575b15610d07575b6020906001600160a01b035f516020612c185f395f51905f5254166040519788926303056db360e31b8452600484015260248301528860448301528189606482800301925af1948515610cfc578695610cc8575b50805415610cae575b856001820191825415610c94575b6108ff878254612a3a565b6020825460646001600160a01b035f516020612c185f395f51905f52541693866040519586948593637702dcff60e01b85528d6004860152602485015260448401525af1908115610c54578391610c5f575b508155825460206109628983612a3a565b60646001600160a01b035f516020612c185f395f51905f52541693866040519586948593637702dcff60e01b85528d6004860152602485015260448401525af1908115610c54578391610c1f575b50835560206001600160a01b035f516020612c185f395f51905f525416604460405180958193639cd07acb60e01b8352600160048401526109f46024840183612af0565b5af1918215610ba1578892610be9575b50610a3592610a2a610a2a9260028101948555610a22308254612b9a565b339054612b9a565b610a22308254612b9a565b60068101610a44858254612a3a565b6020825460646001600160a01b035f516020612c185f395f51905f525416938a6040519586948593637702dcff60e01b85528b6004860152602485015260448401525af1908115610bde578791610bac575b5081556007820180546020610aab8883612a3a565b60646001600160a01b035f516020612c185f395f51905f525416938b6040519586948593637702dcff60e01b85528c6004860152602485015260448401525af1908115610ba1578891610b67575b5090610b216008610b2995610b219484550193610b17898654612a3a565b8555309054612b9a565b309054612b9a565b60405192835260208301524260408301527f60e2970d9432bd0b3d64bb4f80409b9f112ff5a7139b2a6afa17c4327f3b8cb560603393a36001815580f35b9190506020823d602011610b99575b81610b83602093836123c0565b81010312610b95579051610b21610af9565b5f80fd5b3d9150610b76565b6040513d8a823e3d90fd5b90506020813d602011610bd6575b81610bc7602093836123c0565b81010312610b9557515f610a96565b3d9150610bba565b6040513d89823e3d90fd5b9091506020813d602011610c17575b81610c05602093836123c0565b81010312610b95575190610a35610a04565b3d9150610bf8565b9250506020823d602011610c4c575b81610c3b602093836123c0565b81010312610b95578791515f6109b0565b3d9150610c2e565b6040513d85823e3d90fd5b9250506020823d602011610c8c575b81610c7b602093836123c0565b81010312610b95578791515f610951565b3d9150610c6e565b610ca9610c9f612afd565b8085553090612b9a565b6108f4565b610cc3610cb9612afd565b8083553090612b9a565b6108e6565b9094506020813d602011610cf4575b81610ce4602093836123c0565b81010312610b955751935f6108dd565b3d9150610cd7565b6040513d88823e3d90fd5b94506020610d13612afd565b959050610889565b9050610d25612afd565b90610883565b90506020813d602011610d55575b81610d46602093836123c0565b81010312610b9557515f61087a565b3d9150610d39565b610d7c90833d8511610d81575b610d7481836123c0565b8101906124a2565b610851565b503d610d6a565b81610d92916123c0565b610d9d57875f610815565b8780fd5b6040513d84823e3d90fd5b5080fd5b9096506020813d602011610ddc575b81610dcc602093836123c0565b81010312610b955751955f6107a5565b3d9150610dbf565b81610dee916123c0565b610df957855f61074e565b8580fd5b9092506020813d602011610e29575b81610e19602093836123c0565b81010312610b955751915f6106e7565b3d9150610e0c565b81610e3b916123c0565b610e4657845f61066a565b8480fd5b945095506020843d602011610e79575b81610e67602093836123c0565b81010312610b9557869351955f610601565b3d9150610e5a565b6040513d87823e3d90fd5b634e487b7160e01b5f52602160045260245ffd5b62543af960e41b8452600484fd5b63baf3f0f760e01b8452600484fd5b6307db1be560e41b8452600484fd5b8280fd5b5034610144576020366003190112610144576040906001600160a01b03610ef5612379565b16815260046020528181208054918351906020820193845260208252610f1b85836123c0565b505191519160208110610f43575b50600101546001600160a01b038351921682526020820152f35b5f1960209190910360031b1b909116906001610f29565b5034610144576020366003190112610144576004356005548110156104bb57808252600260205260ff60056040842001541661107e5780825260026020526003604083200154421061107e578082526002602052604082206005810160ff8154161580611070575b1561102b57600160ff19825416179055547f248d595ec1f86fca734f2147cbddceb451a4d2a98d6f093ca89f4515f663a00d602060405160018152a27fc771f78de67f406dca48ccd4f14d5acee83ab49b192d5f9633c0cc2bbce905b16020604051428152a280f35b60405162461bcd60e51b815260206004820152601260248201527f43616e6e6f74206c6f636b206d61726b657400000000000000000000000000006044820152606490fd5b506003820154421015610fc2565b63baf3f0f760e01b8252600482fd5b5034610144576020366003190112610144576004356005548110156104bb57600c6040836001600160a01b0393602095526002855220015416604051908152f35b503461014457806003193601126101445760206001600160a01b0360015416604051908152f35b50346101445780600319360112610144576020600654604051908152f35b5034610144576020366003190112610144576004356005548110156104bb57600560408360ff9360209552600285522001541661114f81612474565b6040519061115c81612474565b8152f35b5034610144576040366003190112610144576004359061117e612363565b916005548110156104bb57816040916001600160a01b03935260036020522091165f52602052602060ff600360405f200154166040519015158152f35b50346101445760803660031901126101445760043567ffffffffffffffff8111610dac576111ed903690600401612446565b60243591604435906064356001600160a01b038116809103610df9576112143685846123e2565b51156115bc57610e10851094851586816115af575b6115a057610e1085106115a057821561159157600554966112498861251b565b600555878952600260205260408920916112643689886123e2565b9182518015908115611586575b811561157a575b5061156b579061155e575b61154f5762278d00861161154f578782558051600183019167ffffffffffffffff821161153b576112b4835461253d565b601f81116114f6575b509189969593918b959360209c508c90601f831160011461144d579282611348937f747e87b17856feac975b1d007d7a17a5953fecf4f7b4f495bf39af6b4d5914f39b9c9361140097968b92611442575b50508160011b915f199060031b1c19161790555b42600284015561134361133586426125fa565b9560038501968755426125fa565b6125fa565b6004820190815560058201805460ff19169055600b820180547fffffffffffffffffffffff0000000000000000000000000000000000000000ff163360081b74ffffffffffffffffffffffffffffffffffffffff0016179055600c8201805473ffffffffffffffffffffffffffffffffffffffff1916909517909455610b216113cf612afd565b60068301908155610b216113e1612afd565b916007850192835560086113f3612afd565b9501948555543090612b9a565b549054918660405194606086528160608701526080860137608087850101528783015260408201526080813395601f80199101168101030190a3604051908152f35b015190505f8061130e565b8388528188209a93929190601f198316895b8181106114c55750927f747e87b17856feac975b1d007d7a17a5953fecf4f7b4f495bf39af6b4d5914f39b9c6113489593600193836114009a9997106114ad575b505050811b019055611322565b01515f1960f88460031b161c191690555f80806114a0565b939597999b509091939597999b8f600181928786015181550195019301908e9b9997959392919c9a9896949c61145f565b838c5260208c20601f840160051c81019160208510611531575b601f0160051c01905b81811061152657506112bd565b8c8155600101611519565b9091508190611510565b634e487b7160e01b8b52604160045260248bfd5b637616640160e01b8952600489fd5b506301e133808311611283565b63103c380960e31b8b5260048bfd5b6101f49150115f611278565b600a81109150611271565b631b68fd9560e21b8852600488fd5b637616640160e01b8852600488fd5b506301e133808211611229565b63103c380960e31b8652600486fd5b50346101445760603660031901126101445760043560243567ffffffffffffffff8111610ecc57611600903690600401612428565b9060443567ffffffffffffffff81116119ef57611621903690600401612428565b918184527f878245876662ba28a480c5ea71726db859fb50222b0a3d7cbbc21cfa336faf016020526040842054156119e0578184527f878245876662ba28a480c5ea71726db859fb50222b0a3d7cbbc21cfa336faf0160205260408420926040518085602082975493848152019088526020882092885b8181106119c75750506116ad925003856123c0565b8151938460200194856020116119b35760400180951161199f576040518084519660208601978089602085015e8201906020820152036020018082526020016116f690826123c0565b7f9e7b61f58c47dc699ac88507c4f5bb9f121c03808c5676a8078fe583e4649703546001600160a01b03169160405193849283926378542ead60e01b845260048401606090526064840161174991612607565b83810360031901602485015261175e9161247e565b8281036003190160448401526117739161247e565b0381885a94602095f1908115610e81578591611980575b501561197157817f1af0453083661051f6e56e5c070792320652e612154bf9af8637bb1e7655b99d8580a26117be826125ba565b92838552600260205260408520916005830191600260ff84541614946117e3866124ba565b600a8501540361192c576040828051810103126119285785947fbf7b9fb97292421c90f1d3f66d24d096487dd168f4b7a55858b98fedf9c16d7a94606094611848611842604061183b67ffffffffffffffff97612506565b9701612506565b936124ba565b600360ff1982541617815561ff00198154169055600b8101600160ff1982541617905582600982019416937001000000000000000000000000000000008570ffffffffffffffffffffffffffffffffff19835416176fffffffffffffffff00000000000000008560401b1617179055547f248d595ec1f86fca734f2147cbddceb451a4d2a98d6f093ca89f4515f663a00d602060405160038152a2604051928352166020820152426040820152a27f661ce16e44a34377fc37c19874f4b1bec6e84b072cf8d318838fe17c20c58e4460408051848152426020820152a280f35b8680fd5b60405162461bcd60e51b815260206004820152601260248201527f496e76616c6964207265717565737420494400000000000000000000000000006044820152606490fd5b63cf6c44e960e01b8452600484fd5b611999915060203d602011610d8157610d7481836123c0565b5f61178a565b634e487b7160e01b86526011600452602486fd5b634e487b7160e01b87526011600452602487fd5b8454835260019485019489945060209093019201611698565b63d66ca67560e01b8452600484fd5b8380fd5b5034610144578060031936011261014457611a0c612593565b806001600160a01b0360015473ffffffffffffffffffffffffffffffffffffffff198116600155167f8be0079c531659141344cd1fd0a4f28419497f9722a3daafe3b4186f6b6457e08280a380f35b5034610144576040366003190112610144576004356024356004811015610ecc5760055482101561024c57818352600260205260ff600b6040852001541615611c0f5781835260026020526001600160a01b03600c6040852001541633141580611bfa575b611bec57818352600260205260408320611ad982612474565b600182148015611bd9575b8015611bc6575b15611b8157816005604092611b207f661ce16e44a34377fc37c19874f4b1bec6e84b072cf8d318838fe17c20c58e4495612474565b01805461ff001916600883901b61ff00161790558151611b3f82612474565b818152847f199d2e3e0366688f3ca3cd1a57b2a22416a11bdde84b8a49a14adc8c6daf9d3060203393a3815190611b7581612474565b8152426020820152a280f35b60405162461bcd60e51b815260206004820152600f60248201527f496e76616c6964206f7574636f6d6500000000000000000000000000000000006044820152606490fd5b50611bd082612474565b60038214611aeb565b50611be382612474565b60028214611ae4565b6282b42960e81b8352600483fd5b506001600160a01b0360015416331415611ac0565b63174b639360e11b8352600483fd5b503461014457602036600319011261014457600435611c3b612575565b6005548110156104bb57808252600260205260ff600b6040842001541615611e76578082526002602052604082208183526003602052604083206001600160a01b0333165f5260205260405f209060ff600383015416611e67578284526003602052604084206001600160a01b0333165f52602052600360405f2001600160ff1982541617905560ff600582015460081c16600381145f14611e30575050806001611cea925491015490612a3a565b905b826001600160a01b037f0000000000000000000000000000000000000000000000000000000000000000166001600160a01b037f9e7b61f58c47dc699ac88507c4f5bb9f121c03808c5676a8078fe583e46497005416803b15610ecc57604051630f8e573b60e21b8152600481018690526001600160a01b03831660248201529083908290604490829084905af1908115610c54578391611e1b575b505060209060446040518094819363170856b560e01b83523360048401528860248401525af18015611e1057611df3575b506040519182524260208301527f04bd90206e357a3248aeb7631d173413df7caf5c40e54552d100881418d3d94f60403393a36001815580f35b611e0b9060203d602011610d8157610d7481836123c0565b611db9565b6040513d86823e3d90fd5b81611e25916123c0565b610dac57815f611d88565b60018103611e495750611e4391546128bd565b90611cec565b600203611e5d576001611e4392015461263a565b5050611e43612afd565b630c8d9eab60e31b8452600484fd5b63174b639360e11b8252600482fd5b50346101445760403660031901126101445760043590611ea3612363565b916005548110156104bb57816040916001600160a01b03935260036020522091165f52602052606060405f20805490600260018201549101549060405192835260208301526040820152f35b5034610b95576020366003190112610b955760043560055481101561235457805f526002602052600160ff600560405f200154160361234557805f526002602052600460405f200154421061234557805f5260026020526001600160a01b03600c60405f2001541633141580612330575b61232257805f52600260205260405f20604051611f7e6060826123c0565b60028152602081016040368237600683015482511561230e578152600783015482516001101561230e5760408301527f878245876662ba28a480c5ea71726db859fb50222b0a3d7cbbc21cfa336faf0054916001600160a01b037f9e7b61f58c47dc699ac88507c4f5bb9f121c03808c5676a8078fe583e46497005416803b15610b95575f6040518092637d6e912360e11b8252602060048301528183816120296024820189612607565b03925af18015612303576122ee575b50856001600160a01b037f9e7b61f58c47dc699ac88507c4f5bb9f121c03808c5676a8078fe583e46497025416803b15610dac57816040518092633263b83b60e01b825287600483015260606024830152818381612099606482018a612607565b633f2446cd60e11b604483015203925af18015610da1576122d9575b508390527f878245876662ba28a480c5ea71726db859fb50222b0a3d7cbbc21cfa336faf0160205260408620546122ca578286527f878245876662ba28a480c5ea71726db859fb50222b0a3d7cbbc21cfa336faf016020526040862090519167ffffffffffffffff83116122b6576801000000000000000083116122b6578154838355808410612290575b5090865260208620865b83811061227c575050505061217f7f878245876662ba28a480c5ea71726db859fb50222b0a3d7cbbc21cfa336faf005461251b565b7f878245876662ba28a480c5ea71726db859fb50222b0a3d7cbbc21cfa336faf00556005820190600160ff835416148061226e575b15612229577f6e3be2bdd3b1a2be00cb91987affec5dadc1fb131c260f9e25962ccb1d19687292604092600260ff1982541617905581600a820155547f248d595ec1f86fca734f2147cbddceb451a4d2a98d6f093ca89f4515f663a00d6020845160028152a28151908152426020820152a280f35b60405162461bcd60e51b815260206004820152601560248201527f43616e6e6f74207265736f6c7665206d61726b657400000000000000000000006044820152606490fd5b5060048301544210156121b4565b60019060208451940193818401550161214a565b828852836020892091820191015b8181106122ab5750612140565b88815560010161229e565b634e487b7160e01b87526041600452602487fd5b633f06d22b60e01b8652600486fd5b816122e3916123c0565b610df957855f6120b5565b6122fb9196505f906123c0565b5f945f612038565b6040513d5f823e3d90fd5b634e487b7160e01b5f52603260045260245ffd5b6282b42960e81b5f5260045ffd5b506001600160a01b0360015416331415611f60565b63baf3f0f760e01b5f5260045ffd5b6307db1be560e41b5f5260045ffd5b602435906001600160a01b0382168203610b9557565b600435906001600160a01b0382168203610b9557565b610120810190811067ffffffffffffffff8211176123ac57604052565b634e487b7160e01b5f52604160045260245ffd5b90601f8019910116810190811067ffffffffffffffff8211176123ac57604052565b92919267ffffffffffffffff82116123ac576040519161240c601f8201601f1916602001846123c0565b829481845281830111610b95578281602093845f960137010152565b9080601f83011215610b9557816020612443933591016123e2565b90565b9181601f84011215610b955782359167ffffffffffffffff8311610b955760208381860195010111610b9557565b60041115610e8c57565b805180835260209291819084018484015e5f828201840152601f01601f1916010190565b90816020910312610b9557518015158103610b955790565b156124c157565b60405162461bcd60e51b815260206004820152601460248201527f4d61726b6574206e6f74207265736f6c76696e670000000000000000000000006044820152606490fd5b519067ffffffffffffffff82168203610b9557565b5f1981146125295760010190565b634e487b7160e01b5f52601160045260245ffd5b90600182811c9216801561256b575b602083101461255757565b634e487b7160e01b5f52602260045260245ffd5b91607f169161254c565b60025f54146125845760025f55565b633ee5aeb560e01b5f5260045ffd5b6001600160a01b036001541633036125a757565b63118cdaa760e01b5f523360045260245ffd5b600554905f5b8281106125d6576302e8145360e61b5f5260045ffd5b805f52600260205281600a60405f200154146125f4576001016125c0565b91505090565b9190820180921161252957565b90602080835192838152019201905f5b8181106126245750505090565b8251845260209384019390920191600101612617565b90600901549060ff8260801c16156128785767ffffffffffffffff808360401c16921682158015612866575b6128605767ffffffffffffffff1680830167ffffffffffffffff81116125295767ffffffffffffffff1660c881029067ffffffffffffffff82169182036125295767ffffffffffffffff612710819304169003116125295760206126ca5f92612b4b565b83908415612850575b8015612842575b5f516020612c185f395f51905f5254604051630afe14ad60e31b8152600480820194909452848101909301919091527fff00000000000000000000000000000000000000000000000000000000000000841660448301529092839160649183916001600160a01b03165af1908115612303575f9161280e575b506127ae926020918015612800575b6001600160a01b035f516020612c185f395f51905f525416905f604051809781958294635a53accb60e01b8452600484019092916060820193825260208201526040600160f81b910152565b03925af1908115612303575f916127ca575b6124439250612a3a565b90506020823d6020116127f8575b816127e5602093836123c0565b81010312610b95576124439151906127c0565b3d91506127d8565b50612809612afd565b612762565b90506020813d60201161283a575b81612829602093836123c0565b81010312610b9557516127ae612753565b3d915061281c565b5061284b612afd565b6126da565b905061285a612afd565b906126d3565b50905090565b5067ffffffffffffffff811615612666565b60405162461bcd60e51b815260206004820152601460248201527f546f74616c73206e6f74206465637279707465640000000000000000000000006044820152606490fd5b90600901549060ff8260801c16156128785767ffffffffffffffff8083169260401c1682158015612a28575b6128605767ffffffffffffffff1680830167ffffffffffffffff81116125295767ffffffffffffffff1660c881029067ffffffffffffffff82169182036125295767ffffffffffffffff612710819304169003116125295761294a90612b4b565b818215612a1a575b8115612a06575b6020906001600160a01b035f516020612c185f395f51905f525416604051938492630afe14ad60e31b8452600484015260248301525f6044830152815f606482800301925af1908115612303575f9161280e57506127ae926020918015612800576001600160a01b035f516020612c185f395f51905f525416905f604051809781958294635a53accb60e01b8452600484019092916060820193825260208201526040600160f81b910152565b90506020612a12612afd565b919050612959565b50612a23612afd565b612952565b5067ffffffffffffffff8116156128e9565b8015612ae2575b8115612ace575b6020906001600160a01b035f516020612c185f395f51905f52541660405193849263022f65e760e31b8452600484015260248301525f6044830152815f606482800301925af1908115612303575f91612a9f575090565b90506020813d602011612ac6575b81612aba602093836123c0565b81010312610b95575190565b3d9150612aad565b90506020612ada612afd565b919050612a48565b50612aeb612afd565b612a41565b906054821015610e8c5752565b5f516020612c185f395f51905f5254604051639cd07acb60e01b81525f6004820152906001600160a01b0316816044815f602094600560248401525af1908115612303575f91612a9f575090565b5f516020612c185f395f51905f5254604051639cd07acb60e01b815260048101929092526001600160a01b0316816044815f602094600560248401525af1908115612303575f91612a9f575090565b6001600160a01b037f9e7b61f58c47dc699ac88507c4f5bb9f121c03808c5676a8078fe583e4649700541691823b15610b9557604051635ca4b5b160e11b815260048101929092526001600160a01b03166024820152905f908290604490829084905af1801561230357612c0b5750565b5f612c15916123c0565b56fe9e7b61f58c47dc699ac88507c4f5bb9f121c03808c5676a8078fe583e4649701a164736f6c634300081b000a9e7b61f58c47dc699ac88507c4f5bb9f121c03808c5676a8078fe583e46497039e7b61f58c47dc699ac88507c4f5bb9f121c03808c5676a8078fe583e46497019e7b61f58c47dc699ac88507c4f5bb9f121c03808c5676a8078fe583e46497029e7b61f58c47dc699ac88507c4f5bb9f121c03808c5676a8078fe583e4649700",
  "linkReferences": {},
  "deployedLinkReferences": {}
}