{
  "_format": "hh-sol-artifact-1",
  "contractName": "ConfidentialUSDC",
  "sourceName": "contracts/tokens/ConfidentialUSDC.sol",
  "abi": [
    {
      "inputs": [
        {
          "internalType": "address",
          "name": "owner",
          "type": "address"
        }
      ],
      "stateMutability": "nonpayable",
      "type": "constructor"
    },
    {
      "inputs": [],
      "name": "InsufficientAllowance",
      "type": "error"
    },
    {
      "inputs": [],
      "name": "InsufficientBalance",
      "type": "error"
    },
    {
      "inputs": [],
      "name": "InvalidAddress",
      "type": "error"
    },
    {
      "inputs": [],
      "name": "InvalidAmount",
      "type": "error"
    },
    {
      "anonymous": false,
      "inputs": [
        {
          "indexed": true,
          "internalType": "address",
          "name": "owner",
          "type": "address"
        },
        {
          "indexed": true,
          "internalType": "address",
          "name": "spender",
          "type": "address"
        }
      ],
      "name": "Approval",
      "type": "event"
    },
    {
      "anonymous": false,
      "inputs": [
        {
          "indexed": true,
          "internalType": "address",
          "name": "to",
          "type": "address"
        },
        {
          "indexed": false,
          "internalType": "uint64",
          "name": "amount",
          "type": "uint64"
        }
      ],
      "name": "Mint",
      "type": "event"
    },
    {
      "anonymous": false,
      "inputs": [
        {
          "indexed": true,
          "internalType": "address",
          "name": "from",
          "type": "address"
        },
        {
          "indexed": true,
          "internalType": "address",
          "name": "to",
          "type": "address"
        }
      ],
      "name": "Transfer",
      "type": "event"
    },
    {
      "inputs": [
        {
          "internalType": "address",
          "name": "owner",
          "type": "address"
        },
        {
          "internalType": "address",
          "name": "spender",
          "type": "address"
        }
      ],
      "name": "allowance",
      "outputs": [
        {
          "internalType": "euint64",
          "name": "",
          "type": "bytes32"
        }
      ],
      "stateMutability": "view",
      "type": "function"
    },
    {
      "inputs": [
        {
          "internalType": "address",
          "name": "spender",
          "type": "address"
        },
        {
          "internalType": "externalEuint64",
          "name": "encryptedAmount",
          "type": "bytes32"
        },
        {
          "internalType": "bytes",
          "name": "inputProof",
          "type": "bytes"
        }
      ],
      "name": "approve",
      "outputs": [],
      "stateMutability": "nonpayable",
      "type": "function"
    },
    {
      "inputs": [
        {
          "internalType": "address",
          "name": "account",
          "type": "address"
        }
      ],
      "name": "balanceOf",
      "outputs": [
        {
          "internalType": "euint64",
          "name": "",
          "type": "bytes32"
        }
      ],
      "stateMutability": "view",
      "type": "function"
    },
    {
      "inputs": [],
      "name": "decimals",
      "outputs": [
        {
          "internalType": "uint8",
          "name": "",
          "type": "uint8"
        }
      ],
      "stateMutability": "pure",
      "type": "function"
    },
    {
      "inputs": [],
      "name": "initialSupplyHolder",
      "outputs": [
        {
          "internalType": "address",
          "name": "",
          "type": "address"
        }
      ],
      "stateMutability": "view",
      "type": "function"
    },
    {
      "inputs": [
        {
          "internalType": "address",
          "name": "to",
          "type": "address"
        },
        {
          "internalType": "uint64",
          "name": "amount",
          "type": "uint64"
        }
      ],
      "name": "mint",
      "outputs": [],
      "stateMutability": "nonpayable",
      "type": "function"
    },
    {
      "inputs": [
        {
          "internalType": "address",
          "name": "to",
          "type": "address"
        },
        {
          "internalType": "uint64",
          "name": "amount",
          "type": "uint64"
        }
      ],
      "name": "mockMint",
      "outputs": [],
      "stateMutability": "nonpayable",
      "type": "function"
    },
    {
      "inputs": [],
      "name": "name",
      "outputs": [
        {
          "internalType": "string",
          "name": "",
          "type": "string"
        }
      ],
      "stateMutability": "view",
      "type": "function"
    },
    {
      "inputs": [],
      "name": "protocolId",
      "outputs": [
        {
          "internalType": "uint256",
          "name": "",
          "type": "uint256"
        }
      ],
      "stateMutability": "pure",
      "type": "function"
    },
    {
      "inputs": [],
      "name": "symbol",
      "outputs": [
        {
          "internalType": "string",
          "name": "",
          "type": "string"
        }
      ],
      "stateMutability": "view",
      "type": "function"
    },
    {
      "inputs": [],
      "name": "totalSupply",
      "outputs": [
        {
          "internalType": "euint64",
          "name": "",
          "type": "bytes32"
        }
      ],
      "stateMutability": "view",
      "type": "function"
    },
    {
      "inputs": [
        {
          "internalType": "address",
          "name": "to",
          "type": "address"
        },
        {
          "internalType": "externalEuint64",
          "name": "encryptedAmount",
          "type": "bytes32"
        },
        {
          "internalType": "bytes",
          "name": "inputProof",
          "type": "bytes"
        }
      ],
      "name": "transfer",
      "outputs": [
        {
          "internalType": "bool",
          "name": "",
          "type": "bool"
        }
      ],
      "stateMutability": "nonpayable",
      "type": "function"
    },
    {
      "inputs": [
        {
          "internalType": "address",
          "name": "to",
          "type": "address"
        },
        {
          "internalType": "euint64",
          "name": "amount",
          "type": "bytes32"
        }
      ],
      "name": "transferEncrypted",
      "outputs": [
        {
          "internalType": "bool",
          "name": "",
          "type": "bool"
        }
      ],
      "stateMutability": "nonpayable",
      "type": "function"
    },
    {
      "inputs": [
        {
          "internalType": "address",
          "name": "from",
          "type": "address"
        },
        {
          "internalType": "address",
          "name": "to",
          "type": "address"
        },
        {
          "internalType": "externalEuint64",
          "name": "encryptedAmount",
          "type": "bytes32"
        },
        {
          "internalType": "bytes",
          "name": "inputProof",
          "type": "bytes"
        }
      ],
      "name": "transferFrom",
      "outputs": [
        {
          "internalType": "bool",
          "name": "",
          "type": "bool"
        }
      ],
      "stateMutability": "nonpayable",
      "type": "function"
    },
    {
      "inputs": [
        {
          "internalType": "address",
          "name": "from",
          "type": "address"
        },
        {
          "internalType": "address",
          "name": "to",
          "type": "address"
        },
        {
          "internalType": "euint64",
          "name": "amount",
          "type": "bytes32"
        }
      ],
      "name": "transferFromEncrypted",
      "outputs": [
        {
          "internalType": "bool",
          "name": "",
          "type": "bool"
        }
      ],
      "stateMutability": "nonpayable",
      "type": "function"
    }
  ],
  "bytecode": "0x60a080604052346103c057602081611780803803809161001f82856105dc565b8339810103126103c057516001600160a01b038116908181036103c0576040519161004b6040846105dc565b6011835270436f6e666964656e7469616c205553444360781b6020840152604051916100786040846105dc565b6005835264635553444360d81b60208401525f6060604051610099816105c1565b8281528260208201528260408201520152731364cbbf2cdf5032c47d8226a6f6fbd2afcdacac60606040516100cd816105c1565b73687820221192c5b662b25367f70076a37bc79b6c80825273848b0066793bcc60346da1f49049357399b8d5956020830181905273a02cda4ca3a71d7c46997716f4283aa851c288126040840181905293909201939093525f5160206117605f395f51905f5280546001600160a01b031990811690941790555f5160206117405f395f51905f528054841690911790557f9e7b61f58c47dc699ac88507c4f5bb9f121c03808c5676a8078fe583e46497028054831690911790557f9e7b61f58c47dc699ac88507c4f5bb9f121c03808c5676a8078fe583e46497038054909116731364cbbf2cdf5032c47d8226a6f6fbd2afcdacac17905583516001600160401b0381116104d5575f54600181811c911680156105b7575b60208210146104b757601f8111610555575b50602094601f82116001146104f4579481929394955f926104e9575b50508160011b915f199060031b1c1916175f555b82516001600160401b0381116104d557600154600181811c911680156104cb575b60208210146104b757601f8111610454575b506020601f82116001146103f157819293945f926103e6575b50508160011b915f199060031b1c1916176001555b61029e6102936105ff565b806004553090610705565b81156103d75760808190525f5160206117405f395f51905f5254604051639cd07acb60e01b815264e8d4a5100060048201526005602482015290602090829060449082905f906001600160a01b03165af19081156103cc575f91610394575b508061034e610356936102939350855f5260026020526103218360405f2054610681565b5f87815260026020526040902081905561033c903090610705565b855f52600260205260405f2054610705565b600454610681565b604051905f7f4853ae1b4d437c4255ac16cd3ceda3465975023f27cb141584cd9d44440fed828180a3610fd090816107708239608051816103dd0152f35b90506020813d6020116103c4575b816103af602093836105dc565b810103126103c057516103566102fd565b5f80fd5b3d91506103a2565b6040513d5f823e3d90fd5b63e6c4247b60e01b5f5260045ffd5b015190505f80610273565b601f1982169060015f52805f20915f5b81811061043c57509583600195969710610424575b505050811b01600155610288565b01515f1960f88460031b161c191690555f8080610416565b9192602060018192868b015181550194019201610401565b60015f527fb10e2d527612073b26eecdfd717e6a320cf44b4afac2b0732d9fcbe2b7fa0cf6601f830160051c810191602084106104ad575b601f0160051c01905b8181106104a2575061025a565b5f8155600101610495565b909150819061048c565b634e487b7160e01b5f52602260045260245ffd5b90607f1690610248565b634e487b7160e01b5f52604160045260245ffd5b015190505f80610213565b601f198216955f8052805f20915f5b88811061053d57508360019596979810610525575b505050811b015f55610227565b01515f1960f88460031b161c191690555f8080610518565b91926020600181928685015181550194019201610503565b5f80527f290decd9548b62a8d60345a988386fc84ba6bc95484008f6362f93160ef3e563601f830160051c810191602084106105ad575b601f0160051c01905b8181106105a257506101f7565b5f8155600101610595565b909150819061058c565b90607f16906101e5565b608081019081106001600160401b038211176104d557604052565b601f909101601f19168101906001600160401b038211908210176104d557604052565b5f5160206117405f395f51905f5254604051639cd07acb60e01b81525f60048201819052600560248301529091602091839160449183916001600160a01b03165af19081156103cc575f91610652575090565b90506020813d602011610679575b8161066d602093836105dc565b810103126103c0575190565b3d9150610660565b9081156106f5575b80156106e3575b602090606460018060a01b035f5160206117405f395f51905f525416935f604051958694859363022f65e760e31b8552600485015260248401528160448401525af19081156103cc575f91610652575090565b5060206106ee6105ff565b9050610690565b90506106ff6105ff565b90610689565b5f5160206117605f395f51905f52546001600160a01b031691823b156103c057604051635ca4b5b160e11b815260048101929092526001600160a01b03166024820152905f908290604490829084905af180156103cc576107635750565b5f61076d916105dc565b56fe6080806040526004361015610012575f80fd5b5f3560e01c90816306fdde03146104be57508063170856b51461048a57806317f730e01461043957806318160ddd1461041c5780632893c5b0146100c1578063313ce56714610401578063444791de146103be57806370a08231146103865780637b7e0a5a1461035d57806395d89b41146102515780639a094352146101db578063b32c10011461013a578063da1f12ab1461011e578063dd62ed3e146100c65763eff78850146100c1575f80fd5b6105c3565b3461011a57604036600319011261011a576100df610597565b6001600160a01b036100ef6105ad565b91165f5260036020526001600160a01b0360405f2091165f52602052602060405f2054604051908152f35b5f80fd5b3461011a575f36600319011261011a5760206040516127118152f35b3461011a5761014836610780565b9192906001600160a01b0382169384156101cc5761016e610174926101a59536916107fd565b90610c88565b335f52600360205260405f20845f526020528060405f20556101963082610f28565b6101a03382610f28565b610f28565b337ff37f546c25e850257cc0c94f92bec94a17e2f0e884ddda268a25d8144b70eb6a5f80a3005b63e6c4247b60e01b5f5260045ffd5b3461011a57608036600319011261011a576101f4610597565b6101fc6105ad565b906064359167ffffffffffffffff831161011a5761024061023961023161022a610246963690600401610752565b36916107fd565b604435610c88565b3384610a56565b916108de565b602060405160018152f35b3461011a575f36600319011261011a576040515f6001548060011c90600181168015610353575b60208310811461033f5782855290811561031b57506001146102bd575b6102b9836102a5818503826107c7565b604051918291602083526020830190610573565b0390f35b91905060015f527fb10e2d527612073b26eecdfd717e6a320cf44b4afac2b0732d9fcbe2b7fa0cf6915f905b808210610301575090915081016020016102a5610295565b9192600181602092548385880101520191019092916102e9565b60ff191660208086019190915291151560051b840190910191506102a59050610295565b634e487b7160e01b5f52602260045260245ffd5b91607f1691610278565b3461011a5761024661016e61037f61037436610780565b9491929436916107fd565b90336108de565b3461011a57602036600319011261011a576001600160a01b036103a7610597565b165f526002602052602060405f2054604051908152f35b3461011a575f36600319011261011a5760206040516001600160a01b037f0000000000000000000000000000000000000000000000000000000000000000168152f35b3461011a575f36600319011261011a57602060405160068152f35b3461011a575f36600319011261011a576020600454604051908152f35b3461011a57606036600319011261011a57610452610597565b61045a6105ad565b906044359161046883610843565b1561047b57610240610246933384610a56565b63162908e360e11b5f5260045ffd5b3461011a57604036600319011261011a576104a3610597565b6024356104af81610843565b1561047b5761024691336108de565b3461011a575f36600319011261011a575f5f548060011c90600181168015610569575b60208310811461033f5782855290811561031b575060011461050d576102b9836102a5818503826107c7565b5f8080527f290decd9548b62a8d60345a988386fc84ba6bc95484008f6362f93160ef3e563939250905b80821061054f575090915081016020016102a5610295565b919260018160209254838588010152019101909291610537565b91607f16916104e1565b805180835260209291819084018484015e5f828201840152601f01601f1916010190565b600435906001600160a01b038216820361011a57565b602435906001600160a01b038216820361011a57565b3461011a57604036600319011261011a576004356001600160a01b0381169081810361011a576024359067ffffffffffffffff82169182810361011a575082156101cc575f9060206001600160a01b035f516020610fa45f395f51905f525416604460405180958193639cd07acb60e01b8352886004840152600560248401525af1918215610747575f9261070f575b50916106e06106d5836106cd7f9109de113672aaca72ede8bc906f7aafabee865311ac020fb15c71edf94a0a019660209650885f526002875261069a8360405f2054610ea3565b895f526002885260405f2055885f52600287526106bc60405f20543090610f28565b885f526002875260405f2054610f28565b600454610ea3565b806004553090610f28565b60405190845f7f4853ae1b4d437c4255ac16cd3ceda3465975023f27cb141584cd9d44440fed828180a38152a2005b9150916020823d60201161073f575b8161072b602093836107c7565b8101031261011a57905190916106e0610653565b3d915061071e565b6040513d5f823e3d90fd5b9181601f8401121561011a5782359167ffffffffffffffff831161011a576020838186019501011161011a57565b606060031982011261011a576004356001600160a01b038116810361011a5791602435916044359067ffffffffffffffff821161011a576107c391600401610752565b9091565b90601f8019910116810190811067ffffffffffffffff8211176107e957604052565b634e487b7160e01b5f52604160045260245ffd5b92919267ffffffffffffffff82116107e95760405191610827601f8201601f1916602001846107c7565b82948184528183011161011a578281602093845f960137010152565b7f9e7b61f58c47dc699ac88507c4f5bb9f121c03808c5676a8078fe583e4649700546040516382027b6d60e01b81526004810192909252336024830152602090829060449082906001600160a01b03165afa908115610747575f916108a6575090565b90506020813d6020116108d6575b816108c1602093836107c7565b8101031261011a5751801515810361011a5790565b3d91506108b4565b6001600160a01b0381169182156101cc576001600160a01b0381169384156101cc57835f526002602052602061091860405f205483610d99565b916064610923610c0b565b935f6001600160a01b035f516020610fa45f395f51905f5254166040519687958694637702dcff60e01b86526004860152602485015260448401525af1908115610747575f91610a22575b506109cf906109bd6109fc94865f5260026020526109908360405f2054610e1e565b5f8881526002602052604090208190556109ab903090610f28565b865f52600260205260405f2054610f28565b855f52600260205260405f2054610ea3565b5f8581526002602052604090208190556109ea903090610f28565b835f52600260205260405f2054610f28565b7f4853ae1b4d437c4255ac16cd3ceda3465975023f27cb141584cd9d44440fed825f80a3565b90506020813d602011610a4e575b81610a3d602093836107c7565b8101031261011a57516109fc61096e565b3d9150610a30565b909291926001600160a01b038216805f52600360205260405f206001600160a01b0383165f5260205260405f2054908115610bf1575b610a968287610d99565b610a9e610c0b565b9060206001600160a01b035f516020610fa45f395f51905f5254169260648a5f6040519687948593637702dcff60e01b8552886004860152602485015260448401525af1918215610747575f92610bbc575b506064610b006020939986610e1e565b915f6001600160a01b035f516020610fa45f395f51905f5254166040519788958694637702dcff60e01b86526004860152602485015260448401525af1918215610747575f92610b86575b50610b84936101a0915f52600360205260405f206001600160a01b0385165f526020528260405f2055610b7e3084610f28565b82610f28565b565b9091506020813d602011610bb4575b81610ba2602093836107c7565b8101031261011a575190610b84610b4b565b3d9150610b95565b91506020823d602011610be9575b81610bd7602093836107c7565b8101031261011a579051906064610af0565b3d9150610bca565b9050610bfb610c0b565b90610c063083610f28565b610a8c565b5f60206001600160a01b035f516020610fa45f395f51905f525416604460405180948193639cd07acb60e01b8352816004840152600560248401525af1908115610747575f91610c59575090565b90506020813d602011610c80575b81610c74602093836107c7565b8101031261011a575190565b3d9150610c67565b610cd8916020916001600160a01b035f516020610fa45f395f51905f525416905f60405180968195829463196d0b9b60e01b84526004840152336024840152608060448401526084830190610573565b6005606483015203925af1908115610747575f91610d67575b506001600160a01b037f9e7b61f58c47dc699ac88507c4f5bb9f121c03808c5676a8078fe583e46497005416803b1561011a57604051630f8e573b60e21b815260048101839052336024820152905f908290604490829084905af1801561074757610d5a575090565b5f610d64916107c7565b90565b90506020813d602011610d91575b81610d82602093836107c7565b8101031261011a57515f610cf1565b3d9150610d75565b908115610e0e575b8015610dfc575b60209060646001600160a01b035f516020610fa45f395f51905f525416935f6040519586948593631d44e90160e21b8552600485015260248401528160448401525af1908115610747575f91610c59575090565b506020610e07610c0b565b9050610da8565b9050610e18610c0b565b90610da1565b908115610e93575b8015610e81575b60209060646001600160a01b035f516020610fa45f395f51905f525416935f60405195869485936303056db360e31b8552600485015260248401528160448401525af1908115610747575f91610c59575090565b506020610e8c610c0b565b9050610e2d565b9050610e9d610c0b565b90610e26565b908115610f18575b8015610f06575b60209060646001600160a01b035f516020610fa45f395f51905f525416935f604051958694859363022f65e760e31b8552600485015260248401528160448401525af1908115610747575f91610c59575090565b506020610f11610c0b565b9050610eb2565b9050610f22610c0b565b90610eab565b6001600160a01b037f9e7b61f58c47dc699ac88507c4f5bb9f121c03808c5676a8078fe583e4649700541691823b1561011a57604051635ca4b5b160e11b815260048101929092526001600160a01b03166024820152905f908290604490829084905af1801561074757610f995750565b5f610b84916107c756fe9e7b61f58c47dc699ac88507c4f5bb9f121c03808c5676a8078fe583e4649701a164736f6c634300081b000a9e7b61f58c47dc699ac88507c4f5bb9f121c03808c5676a8078fe583e46497019e7b61f58c47dc699ac88507c4f5bb9f121c03808c5676a8078fe583e4649700",
  "linkReferences": {},
  "deployedLinkReferences": {}
}